:100000000C942F040C9441040C9441040C9441046E
:100010000C9441040C942B050C9441040C94410461
:100020000C9441040C9441040C9441040C9441043C
:100030000C9441040C9441040C9441040C9441042C
:100040000C9441040C9441040C9441040C9441041C
:100050000C9441040C9441040C9441040C9441040C
:100060000C9441040C944104000000000000008046
:10007000C0E0E0F0F0F0F0F0F0F0F0F0F0E0E0C020
:1000800080000000000000000000000000000000F0
:10009000000000000000000080E0F0F0F0F0000040
:1000A000000000000000000000000000000080C010
:1000B000C0E0E0F0F0F0F0F0F0F0F0F0F0F0E0E0B0
:1000C000C0C080000000000000000000000080C0F0
:1000D000C0E0E0F0F0F0F0F0F0F0F0F0F0E0E0C0C0
:1000E0008000000000000000000000000000000090
:1000F00000000000000000000080C0F0F0F0F0F010
:10010000000000000000000000000000000000F0FF
:10011000F0F0F0F0F0F0F0F0F0F0F0F0F0F0F0F0DF
:10012000F0F0F0F00000000000000000000000000F
:1001300080C0E0E0F0F0F0F0F0F0F0F0F0F0E0E09F
:10014000C0C0800000000000000000F0F0F0F0F0FF
:10015000F0F0F0F0F0F0F0F0F0F0F0F0F0F0F0F09F
:10016000F0F0F0F0F0F0000000000000000000806F
:10017000C0E0E0F0F0F0F0F0F0F0F0F0F0E0E0C01F
:10018000C08000000000000000000000000080C0EF
:10019000C0E0E0F0F0F0F0F0F0F0F0F0F0E0E0C0FF
:1001A000800000000000000000000080F0FCFFFF65
:1001B000FF1F0703010000000000000101030F3FC3
:1001C000FFFFFEF8E0000000000000000000C0C0DB
:1001D000E0E0F0F8F8FC7E3F1FFFFFFFFFFF0000AC
:1001E0000000000000000000000000F0FCFFFFFF26
:1001F0001F07030101000000000000000103030FBE
:10020000FFFFFFFEFCC00000000000707C7F7F7FCE
:100210003F070301010000000000000101071FFF6C
:10022000FFFFFEF8000000000000000000000000DA
:1002300000000000C0E0F0FCFE3F1FFFFFFFFFFFDB
:100240000000000000000000000000000080FEFF31
:10025000FFFF7F0301010101010101010101010112
:10026000010101010000000000000080F0FCFEFF21
:100270007F1F070301010000000000000101030FC0
:100280003F3F3F3E38000000000000010101010136
:10029000010101010101010101010181E1F1FDFF04
:1002A000FF3F1F070301000000000000F8FEFFFFF2
:1002B000FF1F0703010000000000000101030FFF02
:1002C000FFFFFFFC00000000000000F0FCFFFFFF4C
:1002D0003F0F070301000000000000010103071F9A
:1002E000FFFFFEFCF00000000000C0FFFFFFFFFF6B
:1002F00000000000000000000000000000000000FE
:100300001FFFFFFFFFFC00000000000000000707C8
:10031000030301010000000000FFFFFFFFFF0000DA
:1003200000000000000000000000000000000000CD
:1003300000000000000000000000000080C0E0F8A5
:10034000FFFFFF3F1F010000000000000000000051
:100350000000000000E0E0E0E0E0E0F0F8FCFF3F3B
:100360003F1F0F030000000000000000000080C0DD
:10037000F0F8FE7F3F0F0701000000FFFFFFFFFFC7
:10038000000000000000000000000000F0FFFFFF80
:10039000FFE7F0F878787C7C7C7C7C7CFCF8F8F8D3
:1003A000F0E0C080000000000000F0FFFFFFFF1F32
:1003B00080C0E0F0F0F87878787878F8F8F8F0F025
:1003C000E0C0C000000000000000000000000000CD
:1003D00000000000000080E0F8FCFFFF7F1F070125
:1003E000000000000000000000000000010F1F3F9F
:1003F0003FFFFCF8F0E0E0E0E0E0E0F0F0F8FE7F46
:100400003F1F0F0700000000000007FFFFFFFFFF76
:10041000C00000000000000000000000000000C05C
:10042000FFFFFFFFFFFF000000000FFFFFFFFFFFC8
:1004300000000000000000000000000000000000BC
:10044000C0FFFFFFFFFF00000000000000000000F1
:10045000000000000000000000FFFFFFFFFF0000A1
:10046000000000000000000000000000000000008C
:1004700000000080C0C0E0F0F8FCFE7F3F1F0F07C7
:100480000301000000000000000000000000000068
:1004900000000000000303030103030303070F1F11
:1004A000FFFFFEFCF8E0000000C0E0F8FCFFBF9F8B
:1004B0008783808080808080808080FFFFFFFFFFB7
:1004C000808080808080000000000002030303071A
:1004D0000301000000000000000000000000010314
:1004E0001FFFFFFFFFFC00000000FFFFFFFFFFFFFB
:1004F0003F070301000000000000000000010307A7
:100500003FFFFFFFFEF000000000000000000000C1
:1005100000000080F0FCFFFFFF3F0701000000002B
:100520000000000000000000000000F0F8FCFEFFEA
:100530003F0F0707030301010101030303070F1F17
:100540007FFEFEFCF0C000000000000003070F1F4C
:100550003F3F7E7C7CF8F8F87878787C3C3E1F0F33
:1005600007FFFFFFFFFF0000000000077FFFFFFF06
:10057000F8C080000000000000000000000080F0D3
:10058000FFFFFFFF1F01000000000000000000004F
:10059000000000000000000000FFFFFFFFFF000060
:1005A000000000000000000000000000C0E0F0F8C3
:1005B000FCFE7F3F1F0F0703010100000000000049
:1005C000000000000000000000000078F8FCFCFCC7
:1005D000E08000000000000000000000000080C07B
:1005E000F8FFFFFFFF3F0000000F0F0F0F0F0F0F6F
:1005F0000F0F0F0F0F0F0F0F0F0F0FFFFFFFFFFF5B
:100600000F0F0F0F0F0F000000000078F8F8F8F838
:10061000E08000000000000000000000000080C03A
:10062000F0FFFFFFFF1F00000000001F7FFFFFFF24
:10063000F8C080000000000000000000000000C0C2
:10064000F8FFFFFF7F1F0000000000000000000017
:100650000080FCFFFFFFFF0F010000000000000012
:10066000000000000000000000000F7FFFFFFFFF00
:10067000C0800000000000000000000000000080BA
:10068000E0FFFFFFFF3F000000000030F0F0F0F05F
:10069000E000000000000000000000000000C0F0CA
:1006A000FFFFFF7F1F0100000000000000010307A3
:1006B0000F1F3F3E3E3C7C7C7C7C7C3C3E3F1F1FB2
:1006C0000F07010000000000000000000000000013
:1006D0000000000000000000003F3F3F3F3F0000DF
:1006E000000000000000000000003C3F3F3F3F3F93
:1006F0003F3E3E3E3E3E3E3E3E3E3E3E3E3E3E3E19
:100700003E3E3E3E3E3E0000000000000103070F5B
:100710001F1F3F3E3C7C7C7C7C7C7C3C3E3F1F1F03
:100720000F070701000000000000000000000000AB
:1007300000000000000000000000003F3F3F3F3F7E
:100740000000000000000000000000000103070F8F
:100750001F1F3F3E3C7C7C7C7C7C3C3C3E3F1F1F03
:100760000F07030100000000000000000001030764
:100770000F1F1F3F3E3C3C7C7C7C7C3C3E3E3F1F31
:100780000F0F070100000000000000000000000043
:10079000003F3F3F3F3F030000000000000000001B
:1007A0000000000000000000000000000103070F2F
:1007B0001F1F3F3E3C7C7C7C7C7C7C3C3C3E3F1F46
:1007C0001F0F0703000000000000000001030F0FCF
:1007D0001F3F3E3C7C7C7C7C7C7C3C3E3E1F1F0F54
:1007E000070301000000000080808080EFC9FB80CB
:1007F000FF898F80FFC9C180FFC9C180FFC1BE8052
:1008000080808080C0F0FF8080808080FFC1BE80BB
:10081000C1FFC180EFC9FB8081FF81808080808023
:10082000C0F0FF8080808080FF89FF80BEC1A280F1
:10083000BEC1A280FFC9C180FFC0E08080808080EF
:10084000C0F0FF8080808080C0F0FF808080C0F09A
:10085000FF80C0F0FF80C0F0FF80C0F0FF80112457
:100860001FBECFEFD4E0DEBFCDBF11E0A0E0B1E00E
:1008700001C01D92A130B107E1F70E9499050C94C7
:10088000F4050C94000080E58CBD8DB581608DBDB4
:10089000289A0895299828988EBD0DB407FEFDCF9B
:1008A000289A0895299A28988EBD0DB407FEFDCF89
:1008B000289A089580E58CBD8DB581608DBD289AFC
:1008C0002A9880ED97E028EC30E0F9013197F1F7B4
:1008D0000197D9F72A9A80E29EE40197F1F780E424
:1008E0000E944A0481EA0E944A0480EC0E944A0461
:1008F00084EA0E944A0486EA0E944A0482EA0E942C
:100900004A048FE20E944A0485E20E944A0481E878
:100910000E944A0485E10E944A048AEF0E944A0428
:1009200080E90E944A048FEA0E944A040895FF92D7
:100930000F931F93082F162FF42E862F82958F70FA
:10094000805F0E944A04812F8F700E944A04802F8A
:1009500080550E944A048F2D0E9452041F910F91CE
:10096000FF9008951F93182F82958F70805F0E94CB
:100970004A04812F8F700E944A041F9108950F939B
:100980001F9300E00BC0802F612F40E00E9497046E
:100990001F5F1736C1F70F5F083011F010E0F3CF7B
:1009A0001F910F910895EF92FF920F931F93CF9392
:1009B000DF9380EB0E944A0480910001882311F0AC
:1009C00000E001C00FE780910001813011F0FF24A9
:1009D00002C09FE7F92E80910001823011F0EE24D1
:1009E00002C08FE7E82EC8EED7E010E0812F0E940A
:1009F000B204FE01849180270E9452041F5F219659
:100A00001F31A1F7CFE1D0E08C2F0E94B204FE018C
:100A1000E851F84FE4918E2F8F250E9452042196C1
:100A2000CB33D10589F7CBE3D0E08C2F0E94B20401
:100A3000FE01E851F84FE4918E2F8E250E9452045A
:100A40002196CB35D10589F7DF91CF911F910F9179
:100A5000FF90EF9008951F920F920FB60F921124FE
:100A60002F933F934F935F936F937F938F939F93B6
:100A7000AF93BF93EF93FF9389B1882361F4809183
:100A8000000190E0019663E070E00E94CD05809344
:100A900000010E94D304FF91EF91BF91AF919F910C
:100AA0008F917F916F915F914F913F912F910F9017
:100AB0000FBE0F901F901895CF92DF92EF92FF928A
:100AC0000F931F93CF93DF93C82EC294CC0C40EEAC
:100AD000C422C62FD0E035E0CC0FDD1F3A95E1F7F8
:100AE000C859DF4F22EBD22E8D2D0E944A047E0181
:100AF00000E010E08C2D800F0E94B204F701849179
:100B00000E9452040F5F1F4F0894E11CF11C003239
:100B1000110581F7D394C05CDE4FF8EBDF1621F7A7
:100B2000DF91CF911F910F91FF90EF90DF90CF90C9
:100B30000895CF93DF935098589A8FEF84B984E04B
:100B40008093680081E080936D000E945A040E94A7
:100B5000BF040E94D3047894C8ECD0E080910001D7
:100B600090E0019663E070E00E94CD058093000163
:100B70006091000180E00E945C05609100016D5F62
:100B800081E00E945C050E94D30488E893E1FE01A5
:100B90003197F1F70197D9F7E1CF97FB092E072697
:100BA0000AD077FD04D00CD006D000201AF470953E
:100BB00061957F4F0895F6F7909581959F4F089521
:100BC000AA1BBB1B51E107C0AA1FBB1FA617B70773
:100BD00010F0A61BB70B881F991F5A95A9F780958F
:0C0BE0009095BC01CD010895F894FFCF62
:00000001FF
