:050302001201DE7F0A7C
:10030700E4FDFCC3ED9FEC9E5015E4FBFA0BBB002C
:0F031700010AEB64FA4A70F50DBD00010C80E499
:0103260022B4
:100227008F20C2B5C2A3A20792A2C2A1D2A1A206E1
:1002370092A2C2A1D2A1A20592A2C2A1D2A1A20456
:1002470092A2C2A1D2A1A20392A2C2A1D2A1A2024A
:1002570092A2C2A1D2A1A20192A2C2A1D2A1A2003E
:0902670092A2C2A1D2A1D2B522DB
:100270008F20C2B5D2A3A20792A2C2A1D2A1A20688
:1002800092A2C2A1D2A1A20592A2C2A1D2A1A2040D
:1002900092A2C2A1D2A1A20392A2C2A1D2A1A20201
:1002A00092A2C2A1D2A1A20192A2C2A1D2A1A200F5
:0902B00092A2C2A1D2A1D2B52292
:0A035D00AE05120270AF0602027036
:1002B9008F20C2B5C2A3A20792A2C2A1D2A1A2064F
:1002C90092A2C2A1D2A1A20592A2C2A1D2A1A204C4
:1002D90092A2C2A1D2A1A20392A2C2A1D2A1A202B8
:1002E90092A2C2A1D2A1A20192A2C2A1D2A1A200AC
:0902F90092A2C2A1D2A1D2B52249
:0501D9001201DE7F02AF
:1001DE008F20C2B5D2A3A20792A2C2A1D2A1A2061B
:1001EE0092A2C2A1D2A1A20592A2C2A1D2A1A204A0
:1001FE0092A2C2A1D2A1A20392A2C2A1D2A1A20294
:10020E0092A2C2A1D2A1A20192A2C2A1D2A1A20087
:09021E0092A2C2A1D2A1D2B52224
:0E034300C2B47F647E00120307D2B402030727
:100003007F011202B97F0A7E001203077F111202D9
:10001300B97F781203077F3A1202B97F05120302F0
:100023007FB11202B9E4FF1201DE7F061201DE7F07
:10003300031203027F361202B97FC81201DE7FB6B4
:100043001202B97F151201D97FB41202B9E4FF126B
:1000530001DE7FC01202B97F021201DE7F7012033C
:10006300027FC11202B97F051201DE7FC21202B9FB
:100073007F011201DE0F1201DE7FC51202B97F3C40
:100083001201DE7F381203027FFC1202B97F1112C4
:1000930001DE7F151201DE7FE01202B97F09120132
:1000A300DE7F161201DE7F091201DE7F201201DEE0
:1000B3000F1201DE7F1B1201DE7F131201DE7F1997
:1000C3001201DE7F171201DE7F151201DE7F1E1281
:1000D30001DE7F2B1201DE7F041201DE0F1201D934
:1000E3007F0E1201DE7FE11202B97F0B1201DE7F68
:1000F300141201DE7F081201DE7F1E1201DE7F2251
:100103001201DE7F1D1201DE7F181201DE7F1E1237
:1001130001DE7F1B1201DE1F1201DE7F241201DECE
:100123007F2B1201DE7F061201DE1201D97F0F122F
:1001330003027F2A1202B9E4FF1201D9FF1201DE82
:100143007F811201DE7F2B1202B9FF1201DE0F1233
:1001530001DE1F1201DE7FA01201DE7F131202B93E
:100163007F0A1203077F2C1202B97F141203077F41
:09017300291202B97F780203078A
:080327008E088F09AB05AA0442
:10032F00E4FCE4F9AF09AD0312035D09B980F50CE4
:03033F00BCA0EF70
:010342002298
:10017C001200037F2C1202B97DFF7C007FFF7E00F2
:10018C001203277FF47E01120307E4FDFCFF1E120D
:10019C0003277FF47E01120307E4FDFC7FF81E1297
:1001AC0003277FF47E011203077DE07C007F071E8E
:1001BC001203277FF47E011203077D1F7C00E4FFEE
:0D01CC001E1203277FF47E0112030780A698
:03000000020351A7
:0C035100787FE4F6D8FD75812002017C65
:00000001FF
